:020000040800F2
:10000000000400200102200061042000610420009F
:1000100061042000610420006104200061042000CC
:1000200061042000610420006104200021262000DA
:1000300061042000610420006104200061042000AC
:10004000610420006104200061042000610420009C
:10005000610420006104200061042000610420008C
:10006000610420006104200061042000610420007C
:10007000610420006104200061042000610420006C
:10008000610420006104200061042000610420005C
:10009000610420006104200061042000610420004C
:1000A00061042000613F200061042000913F200096
:1000B000D13B200061042000610420006104200085
:1000C000610420006104200061042000610420001C
:1000D00061042000E146200061042000610420004A
:1000E00061042000610420006104200061042000FC
:1000F00061042000C13F2000610420006104200051
:100100006104200061042000113B200061042000F4
:1001100061042000610420006104200061042000CB
:1001200061042000610420006104200061042000BB
:1001300061042000610420006104200061042000AB
:10014000610420006104200061042000610420009B
:10015000610420006104200061042000610420008B
:10016000610420006104200061042000610420007B
:10017000610420006104200061042000610420006B
:10018000610420006104200061042000610420005B
:10019000610420006104200061042000610420004B
:1001A000610420006104200061042000610420003B
:1001B000610420006104200061042000610420002B
:1001C000610420006104200061042000610420001B
:1001D000610420006104200061042000610420000B
:1001E00061042000610420006104200061042000FB
:1001F00061042000610420006104200061042000EB
:1002000072B6274880F30888264880F30988264874
:100210004EF60851CEF200010860022080F31488E7
:10022000BFF36F8F00F0CCF804F0AAFA4FF055300E
:100230001E491B4A91423CBF41F8040BFAE71C4996
:10024000184A91423CBF41F8040BFAE719491A4A8F
:100250001A4B9A423EBF51F8040B42F8040BF8E7E0
:1002600000201749174A91423CBF41F8040BFAE7B6
:1002700000F0BEF800F0ACF8134C144DAC4203DAB9
:1002800054F8041B8847F9E704F0D2FA104C114DDA
:10029000AC4203DA54F8041B8847F9E700F0A0B831
:1002A00000040020000800200000200000000020C2
:1002B00000040020E44E000800000120600001203E
:1002C000000800205C120020000220000002200034
:1002D00000022000000220002DE9F04FC1F80CD0F0
:1002E000D0F80CD0BDE8F08F00F0E2FA002383F3E1
:1002F00011882846A047002001F062FB00F0C0FAF8
:1003000001F0EEF800F0D4FA00DFFEE70000000094
:10031000BFF34F8FBFF36F8F074B0022C3F85022FC
:10032000054B5B69044A43F400335361BFF34F8FBD
:10033000BFF36F8F704700BF00ED00E000000000CA
:1003400084B01B4B0022C3F88420BFF34F8F184B9F
:10035000D3F880300193019B5B0BC3F30E0303932F
:10036000019BDB08C3F309030293039B5A0143F685
:10037000E0731340029A92070D491343C1F86032AB
:10038000029B5A1E0292002BEFD1039B5A1E03922E
:10039000002BE5D1BFF34F8F054B5B69044A43F453
:1003A00080335361BFF34F8FBFF36F8F04B070473B
:1003B00000ED00E000000000000000000000000070
:1003C00008B5FFF7A5FFFFF7BBFF08BD0000000061
:1003D000704700BF000000000000000000000000A7
:1003E000FEE700BF00000000000000000000000069
:1003F00084B0164B0393039B1B680293039B5B68BB
:10040000019309E0029B1A68019B1A60019B043367
:100410000193029B04330293039B9B68019A9A42C7
:10042000F0D305E0019B00221A60019B0433019385
:10043000039BDB68019A9A42F4D3039B1033039326
:10044000039B034A9342D6D304B070474049000847
:10045000C04900080000000000000000000000008B
:10046000FEE700BF000000000000000000000000E8
:1004700084B00190019B03F007030393094BDB68F1
:100480000293029A4FF6FF0313400293039B1A0252
:10049000029B1A43044B13430293024A029BD3600C
:1004A00004B0704700ED00E00000FA050000000015
:1004B00082B0034600918DF807309DF90730002B7C
:1004C0000CDA009BDAB20B499DF8073003F00F03FA
:1004D000043B1201D2B20B441A7609E0009BDAB257
:1004E00005499DF907301201D2B20B4483F800236D
:1004F00002B0704700ED00E000E100E00000000005
:1005000008B50320FFF7B4FF0D4BDB680C4A43F03E
:100510008073D3600B4B0C4AC3F8B02F094B1B6898
:10052000084A43F00103136001216FF00400FFF754
:10053000BFFF02216FF00100FFF7BAFF08BD00BF47
:10054000F0ED00E0001000E055CEACC5000000006A
:1005500082B072B620230193019B83F3118862B6A7
:1005600002B0704700000000000000000000000022
:1005700082B000230193019B83F3118802B070477E
:1005800008B5FFF7E5FF08BD00000000000000000F
:1005900008B5FFF7EDFF08BD0000000000000000F7
:1005A00072B670470000000000000000000000006C
:1005B00082B000230193019B83F3118862B602B0DD
:1005C000704700BF000000000000000000000000B5
:1005D000704700BF000000000000000000000000A5
:1005E000014B5B6A18467047000C00400000000099
:1005F00008B502F0DDF808BD0000000000000000B2
:1006000000B583B00190019802F0DAF803B05DF80C
:1006100004FB00BF0000000000000000000000001C
:1006200008B5FFF7DDFF0346184608BD00000000CF
:1006300008B500F00DF9FFF7BBFF08BD0000000092
:1006400008B5FFF79DFF00F04BF908BD0000000062
:1006500008B500F05DF9FFF79BFF08BD0000000042
:1006600008B5FFF7DDFF0346184608BD000000008F
:1006700000B585B000F0A4F9324BDB690393FFF7B6
:10068000EFFF02902AE02F4B9A6A039B9B6813446A
:100690002C4A9362039B1B682B4A5A60039B1B687E
:1006A000284AD361039BDB680093039B0022DA6036
:1006B000244BDB69244A934201D1FFF799FFFFF7EE
:1006C000C7FF039B1A69009B10469847FFF7B8FFC6
:1006D0001C4BDB690393FFF7C3FF0290039B9A68EF
:1006E000184B9B6A0299CB1A9A42CCD9154BDB69FD
:1006F000154A934223D0134B9A6A039B9B681A4472
:10070000029BD31A0193019B012B01D80223019371
:10071000029A019B13441846FFF772FFFFF7A0FFF0
:100720000246084B9B6AD21A0299019B1944054B59
:100730009B6ACB1A9A4202D9044800F049F805B0E6
:100740005DF804FBD8080020F4080020E049000808
:1007500000B583B00190FFF73BFFFCE7000000000D
:1007600008B500F0C5FC00F0DBFA00F0C9F9124B47
:1007700000221A63104B00225A6301F001FA01F0C3
:10078000A7FD01F015FE80220C490D4800F0E0FFA6
:100790000246094B9A61084B9B690A4ADA61064B8B
:1007A0009B69012283F82020FFF7AAFEFFF740FF94
:1007B000054801F085F808BDD8080020FC4A00086B
:1007C0001811002000040020C849000800000000A3
:1007D00000B583B00190FFF7E3FE019800F038FA0E
:1007E000014A019BD362FEE7D80800200000000008
:1007F00008B500F0E5F8FFF73BFF08BD000000007A
:1008000082B072B620230193019B83F3118862B6F4
:1008100002B070470000000000000000000000006F
:1008200082B000230193019B83F3118802B07047CB
:1008300008B5FFF7E5FF08BD00000000000000005C
:1008400008B5FFF7EDFF08BD000000000000000044
:1008500008B5064B1B6B002B03D1044B5B6B002BC5
:1008600002D00348FFF7B4FF08BD00BFD80800203E
:10087000EC4900080000000000000000000000003B
:1008800008B5074B1B6B002B03D1054B5B6B002B93
:1008900002D00448FFF79CFF014B01225A6308BDB8
:1008A000D8080020F4490008000000000000000003
:1008B00008B5074B1B6B002B03D1054B5B6B002B63
:1008C00002DC0448FFF784FF014B00225A6308BD95
:1008D000D8080020FC4900080000000000000000CB
:1008E00008B5074B1B6B002B03DD054B5B6B002B27
:1008F00002D00448FFF76CFF014B01225A6308BD88
:10090000D8080020044A0008000000000000000091
:1009100008B5074B1B6B002B03DD054B5B6B002BF6
:1009200002DC0448FFF754FF014B00225A6308BD64
:10093000D80800200C4A0008000000000000000059
:1009400008B5FFF775FF094B1B6B002B03DB074B4B
:100950005B6B002B02D00648FFF73AFF034B1B6B83
:100960000133024A1363FFF76BFF08BDD80800206C
:10097000144A000800000000000000000000000011
:1009800008B5FFF755FF094B1B6B002B03DD074B29
:100990005B6B002B02D00648FFF71AFF034B1B6B63
:1009A000013B024A1363FFF74BFF08BDD808002044
:1009B0001C4A0008000000000000000000000000C9
:1009C00008B5064B1B6B002B03DB044B5B6B002B4A
:1009D00002DC0348FFF7FCFE08BD00BFD80800207A
:1009E000244A000800000000000000000000000091
:1009F00008B5064B1B6B002B03D1044B5B6B002B24
:100A000002DC0348FFF7E4FE08BD00BFD808002061
:100A10002C4A000800000000000000000000000058
:100A200082B072B620230193019B83F3118862B6D2
:100A300002B070470000000000000000000000004D
:100A400082B000230193019B83F3118802B07047A9
:100A500008B5FFF7E5FF08BD00000000000000003A
:100A600008B5FFF7EDFF08BD000000000000000022
:100A7000014B5B6818467047001000E00000000062
:100A8000014B5B6A18467047000C004000000000F4
:100A900008B5FFF7F5FF0346184608BD0000000043
:100AA00008B5FFF7F5FF0346184608BD0000000033
:100AB00010B50F4BDC6BFFF7F3FF03466360FFF7E6
:100AC000D7FF01460A4BDA6B21F07F41136861F3CF
:100AD0001F231360064BDB6B1033054AD363044BB3
:100AE000DB6B044A934202D3014B034ADA6310BD25
:100AF000D80800201811002018090020000000006C
:100B000082B0104B4FF6F0721A870E4B80225A8734
:100B10000C4B0D4ADA63002301930DE0094A019B57
:100B200001331B01134403F12802137A6FF302030C
:100B30001372019B01330193019B7F2BEED902B00D
:100B4000704700BFD80800201809002000000000EE
:100B500000B583B001900091144B1B8F03F001038B
:100B6000002B1FD1114BDA6B1378012161F30203C3
:100B70001370009B93F820100C4BDA6B0B4603F0BC
:100B80001F03D9B2137861F3C7031370074BDB6BF4
:100B9000064A92699A60054BDB6B009A526ADA60EA
:100BA000FFF786FF03B05DF804FB00BFD808002004
:100BB00000B583B00190104B1B8F03F00203002B94
:100BC00016D1FFF745FF0C4BDA6B1378022161F366
:100BD00002031370084BDA6B13786FF3C7031370BB
:100BE000054BDB6B019A9A60FFF762FFFFF738FF56
:100BF00003B05DF804FB00BFD8080020000000002F
:100C000000B583B00190104B1B8F03F00203002B43
:100C100016D1FFF71DFF0C4BDA6B1378032161F33C
:100C200002031370084BDA6B13786FF3C70313706A
:100C3000054BDB6B019A9A60FFF73AFFFFF710FF55
:100C400003B05DF804FB00BFD808002000000000DE
:100C500000B583B001900E4B1B8F03F00403002BF3
:100C600012D10B4BDA6B1378042161F3020313707A
:100C7000074BDA6B13786FF3C7031370044BDB6B0E
:100C8000019A9A60FFF714FF03B05DF804FB00BF00
:100C9000D808002000000000000000000000000054
:100CA000014B5B6A18467047000C004000000000D2
:100CB00000B583B00190019801F062FD03B05DF8CA
:100CC00004FB00BF00000000000000000000000066
:100CD00008B501F06DFD08BD000000000000000037
:100CE00000B583B00190019801F06AFD03B05DF892
:100CF00004FB00BF00000000000000000000000036
:100D000008B5FFF7CDFF0346184608BD00000000F8
:100D100008B5FFF7F5FF0346184608BD00000000C0
:100D2000064B074ADA61054B054A1A62034B4FF03E
:100D3000FF325A62014B00229A627047D8080020A5
:100D4000F408002000000000000000000000000087
:100D500000B589B00390029101920093FFF730FE35
:100D6000039B002B05D0019B002B02D0029B002B84
:100D700002D14548FFF72CFD039B009A1A61039BA3
:100D8000019ADA60FFF7C4FF0590029B012B01D89E
:100D9000022302933D4BDB693D4A934219D13B4A02
:100DA000059B9362394A039BD361384A039B1362C4
:100DB000039B374A1A60039B354A5A60039B029A89
:100DC0009A60324B9A6A029B13441846FFF770FFF1
:100DD00056E02E4BDB6907932C4B9B6A059AD31A7E
:100DE000029A13440693294B9B6A059AD31A069AD2
:100DF0009A4208D2079B9B68069AD31A0693079BD0
:100E00001B6807931BE0079B9B68069A9A4216D2C1
:100E10001E4B9A6A069B13441846FFF761FF0EE0CB
:100E2000079A039B9A4202D11748FFF7D1FC079B10
:100E30009B68069AD31A0693079B1B680793079B28
:100E40009B68069A9A42EBD8039B079A1A60039B09
:100E50001B685A68039B5A60039B5B68039A1A607D
:100E6000079B039A5A60039B069A9A60079B9A68AD
:100E7000069BD21A079B9A60044B4FF0FF325A62CE
:100E800009B05DF804FB00BF344A0008D808002010
:100E9000F408002000000000000000000000000036
:100EA00000B585B00190FFF78BFD019B002B02D1AF
:100EB0003648FFF78DFC019BDB68002B02D13348DD
:100EC000FFF786FC324BDB69019A9A421BD0019BEB
:100ED0005B68019A12681A60019B1B68019A52684C
:100EE0005A60019B0022DA60019B1B68294A9342E9
:100EF00047D0019B1B689968019B9A68019B1B68FE
:100F00000A449A603EE0019B1B68214AD361204B52
:100F1000DB69204A5A60019B0022DA601C4BDB69C6
:100F20001C4A934202D1FFF7D3FE2BE0184BDB693A
:100F30009968019B9A68164BDB690A449A60FFF72F
:100F4000E7FE0246124B9B6AD31A0293104BDB69F1
:100F50009B68029A9A4215D20D4BDB699A68029BF4
:100F6000D31A0393039B012B01D802230393084B4D
:100F70009A6A029B1A44039B13441846FFF7B0FE7B
:100F800000E000BF05B05DF804FB00BF404A000868
:100F9000D8080020F4080020000000000000000035
:100FA00082B072B620230193019B83F3118862B64D
:100FB00002B07047000000000000000000000000C8
:100FC00082B000230193019B83F3118802B0704724
:100FD00008B5FFF7E5FF08BD0000000000000000B5
:100FE00008B5FFF7EDFF08BD00000000000000009D
:100FF00082B00190019B019A1A60019B019A5A608C
:1010000002B0704700000000000000000000000077
:1010100084B00190019B1B680393039B1A68019B9A
:101020001A60019B1B68019A5A60039B184604B022
:10103000704700BF0000000000000000000000003A
:1010400082B00190019B5B68019A12681A60019B53
:101050001B68019A52685A60019B184602B070479B
:1010600008B5FFF7ADFC064B1B689A68044B9B69FB
:101070009B689A428CBF01230023DBB2184608BD4F
:10108000D808002000000000000000000000000060
:1010900008B5FFF79DFFFFF723FC08BD0000000027
:1010A00008B5FFF735FCFFF79BFF08BD0000000007
:1010B00000B583B00190FFF783FC019BDB68002B38
:1010C00014BF01230023DBB2184603B05DF804FB14
:1010D00000B583B00190FFF773FC019B9B685A1C1D
:1010E000019B9A6003B05DF804FB00BF00000000A4
:1010F00008B50648FFF77CFF044B00229A60034BBB
:10110000024A1A61014B014A5A6108BDD808002001
:1011100000B585B00190FFF753FC019B002B02D175
:101120001848FFF755FB019B93F82030002B04D0A3
:10113000019B93F820300F2B02D11248FFF748FB98
:10114000019B002283F820200F4B0393039B1B6815
:101150000393039B9A68019B9B689A42F6D2019B7A
:10116000039A1A60039B5A68019B5A60019B5B6853
:10117000019A1A60039B019A5A60019B184605B0B8
:101180005DF804FB604A0008D80800200000000059
:1011900000B585B00190FFF713FC019B002B02D135
:1011A0001848FFF715FB019B93F82030002B04D063
:1011B000019B93F820300F2B02D11248FFF708FB58
:1011C000019B002283F820200F4B0393039B1B6895
:1011D0000393039B9A68019B9B689A42F6D8019BF4
:1011E000039A1A60039B5A68019B5A60019B5B68D3
:1011F000019A1A60039B019A5A60019B184605B038
:101200005DF804FB6C4A0008D808002000000000CC
:1012100010B584B003468DF80730194B9B690393D2
:10122000FFF7E6FB039B9DF8072083F82020144876
:10123000FFF7EEFE0246124B9A61114B9B690122A9
:1012400083F820200E4B9B6903991846FFF780FC1A
:10125000EFF309831C4623460293029BA3F1240269
:10126000039BDB699A4202D20648FFF7B1FA044BAE
:101270009B6903991846FFF72FF804B010BD00BF13
:10128000D8080020504A00080000000000000000BC
:1012900000B585B00190019B0393FFF7F9FE039B16
:1012A00093F82030072B23D801A252F823F000BF77
:1012B000D1122000F1122000F1122000D7122000DC
:1012C000EB122000E1122000F1122000EB122000AE
:1012D000FFF7E6FE15E0039B5B6A00221A6007E059
:1012E000039B5B6A1846FFF7F3FE0398FFF7A8FE1F
:1012F000039B4FF0FF325A620398FFF709FFFFF795
:10130000CFFE05B05DF804FB000000000000000007
:1013100000B589B0034600918DF80730FFF768FBF0
:10132000009BB3F1FF3F17D0114B9B6903A8114AF3
:101330000099FFF70DFD9DF807301846FFF768FF8D
:1013400003AB1846FFF7B4FE0346002B09D003ABEE
:101350001846FFF7A5FD04E09DF807301846FFF793
:1013600057FF034B9B695B6A184609B05DF804FBA5
:10137000D8080020911220000000000000000000AA
:1013800010B584B001900091224B9B690393FFF745
:101390002FFB204B1B681F4A93420AD01D4B9B69B1
:1013A0009A681C4B1B689B689A4202D21A48FFF746
:1013B0000FFA019B009A5A62019B9A68039B9B68F3
:1013C0009A4203D80198FFF7A3FE21E00398FFF7A4
:1013D0009FFE03900F4A019B9361019B012283F8BA
:1013E000202003990198FFF7B3FBEFF309831C4614
:1013F00023460293029BA3F12402039BDB699A42DA
:1014000002D20648FFF7E4F903990198FEF764FF5A
:1014100004B010BDD8080020804A0008504A0008D7
:1014200008B5FFF7E5FAFFF71BFE0346002B01D0D6
:1014300000F01EF808BD00BF000000000000000022
:1014400082B0094B1B689B680193074B9B699B68A3
:101450000093019A009B9A428CBF01230023DBB2C8
:10146000184602B0704700BFD808002000000000F6
:1014700010B582B0174B9B6901931648FFF7C8FD62
:101480000246144B9A61134B9B69012283F820207A
:101490000198FFF77DFE01900E4B9B69019918465C
:1014A000FFF756FBEFF309831C4623460093009B8E
:1014B000A3F12402019BDB699A4202D20648FFF79E
:1014C00087F9044B9B6901991846FEF705FF02B0A6
:1014D00010BD00BFD8080020504A000800000000DE
:1014E00010B582B0174B9B6901931648FFF790FD2A
:1014F0000246144B9A61134B9B69012283F820200A
:101500000198FFF745FE01900E4B9B690199184623
:10151000FFF71EFBEFF309831C4623460093009B55
:10152000A3F12402019BDB699A4202D20648FFF72D
:101530004FF9044B9B6901991846FEF7CDFE02B0A6
:1015400010BD00BFD8080020504A0008000000006D
:1015500082B072B620230193019B83F3118862B697
:1015600002B0704700000000000000000000000012
:1015700082B000230193019B83F3118802B070476E
:1015800082B00190019B019A1A6002B0704700BFBF
:1015900082B00190019B1B68019A9A4214BF0123FB
:1015A0000023DBB2184602B0704700BF0000000005
:1015B00082B00190019B019A1A60019B019A5A60C6
:1015C00002B07047000000000000000000000000B2
:1015D00082B00190019B1B68019A9A4214BF0123BB
:1015E0000023DBB2184602B0704700BF00000000C5
:1015F00084B00190019B1B680393039B1A68019BB5
:101600001A60039B184604B0704700BF000000003A
:1016100082B001900091019B009A1A60009B5A6869
:10162000019B5A60019B5B68019A1A60009B019ABA
:101630005A6002B0704700BF0000000000000000C8
:1016400084B00190019B1B680393039B1A68019B64
:101650001A60019B1B68019A5A60039B184604B0EC
:10166000704700BF00000000000000000000000004
:1016700008B5FFF76DFFFFF703F908BD0000000094
:1016800008B5FFF715F9094B1B68084A93420AD0C1
:10169000064B9B699A68054B1B689B689A4202D26D
:1016A0000348FFF795F8FFF763FF08BDD80800204F
:1016B000A84A000800000000000000000000000030
:1016C00082B00190019BDB69184602B0704700BFF1
:1016D00000B583B00190019B002B02D10448FFF7B5
:1016E00077F801990820FFF713FE03B05DF804FBBB
:1016F000DC4A0008000000000000000000000000BC
:1017000000B585B0019000910198FFF761FF034695
:1017100083F00103DBB2002B02D00C48FFF758F82E
:101720000198FFF78DFF0390039B93F82030042B63
:1017300002D00648FFF74CF8039B009A5A620398C0
:10174000FFF7E6FC05B05DF804FB00BFE84A0008BF
:1017500000B585B0039002910192039B019A9A60B3
:10176000039B022283F82020039B002283F8212080
:10177000039B019ADA63039B00229A63039B002276
:101780005A63039B012283F82220039B029A9A61E9
:10179000039B0E4A1A610D4B5A69039B5A61039BC6
:1017A0005B69039A1A61094A039B5361039B2833BF
:1017B0001846FFF7E5FE039B2C331846FFF7F8FEAB
:1017C000039B184605B05DF804FB00BFD808002055
:1017D00084B00390029113468DF8073005E0039B17
:1017E0005A1C03929DF807201A70039A029B9A4292
:1017F000F5D304B0704700BF0000000000000000F7
:1018000000B585B00190FFF7DBF8019B002B02D1FA
:101810002948FEF7DDFF019B5B6803F00703002BFF
:1018200013D1019B9B6803F00703002B0DD1019B93
:101830009A68019B5B689A4207D9019B9B681A468C
:10184000019B5B68D31AC72B02D81B48FEF7C0FF69
:10185000019BDB68FF2B03D8019B1B69002B02D186
:101860001548FEF7B5FF019B9B68483B0393019B1E
:101870005A68039BDA61039BA3F12402039BDA609D
:10188000039BDB68019A12691A60039BDB68019A6B
:1018900052695A60039BDB68084A1A62019B196807
:1018A000019BDB681A460398FFF752FF0346184670
:1018B00005B05DF804FB00BF904A0008E902200073
:1018C00000B585B00190019B5B68184600F050FAA6
:1018D0000346002B02D00E48FEF77AFF019B5868A2
:1018E000019B9B6855221946FFF772FFFFF7C0FE68
:1018F0000198FFF785FF039000210398FFF740FD53
:10190000FFF7BEFE039B184605B05DF804FB00BF61
:10191000B44A0008000000000000000000000000C1
:1019200010B582B00190FFF7A3FE019B93F822301F
:10193000002B02D12048FEF74BFF019B93F8223089
:10194000013BDAB2019B83F82220019B93F82230FD
:10195000002B2DD1019B93F820300F2B28D1019B18
:101960005B69019A12691A61019B1B69019A5269AC
:101970005A61FFF785FE019B93F8213003F00303C2
:10198000012B02D0022B08D014E00198FFF798FE3B
:101990000346184600F024FD0CE0019B1C6C0198E6
:1019A000FFF78EFE03461946204600F001FE01E0D7
:1019B000FFF766FE02B010BDC04A0008000000003C
:1019C00000B583B00190FFF753FE019800F008F8CE
:1019D00003B05DF804FB00BF000000000000000041
:1019E00000B585B001901B4B9B690393039B019A43
:1019F0005A6208E0039B28331846FFF7F9FD0346B7
:101A00001846FFF785FB039B28331846FFF7C0FDF8
:101A10000346002BEED1039B93F82230002B10D10C
:101A2000039B93F8213003F00303002B09D1039BA0
:101A30005B69039A12691A61039B1B69039A5269D5
:101A40005A610F20FFF7E4FB0348FEF7C1FE05B023
:101A50005DF804FBD8080020D04A00080000000010
:101A600000B583B00190FFF703FE0198FFF730FE49
:101A7000FFF706FE03B05DF804FB00BF00000000A6
:101A800000B583B001900091009B002B02D14FF074
:101A9000FF330AE0074B9B6901991846FFF7B8FD31
:101AA00000990420FFF734FC0346184603B05DF8A4
:101AB00004FB00BFD8080020000000000000000068
:101AC00000B583B0019000910198FFF781FD0346B6
:101AD000002B03D000990198FFF712FE03B05DF8C8
:101AE00004FB00BF00000000000000000000000038
:101AF000014B5B6818467047001000E000000000D2
:101B00002DE9100884B0039002910192039BDB68D9
:101B10005A1C039BDA60039B9B68029AD21A019BB2
:101B2000D21A039B9A60039BD3E90412039B9B6820
:101B30009B464FF0000C1BEB01034CEB0204039A95
:101B4000C2E90434039B9A68039B5B689A4203D9F9
:101B5000039B9A68039B5A60039B9A68039B1B68CC
:101B60009A4203D2039B9A68039B1A6004B0BDE8B3
:101B70001008704700000000000000000000000096
:101B800000B587B00B4B0022C3F884286B4618467B
:101B900000F016F86B46184600F032F86B4618460F
:101BA00000F03EF8029B034AC2F8843807B05DF8A3
:101BB00004FB00BFD8080020000000000000000067
:101BC00010B483B00190019B4FF0FF321A60019B6B
:101BD00000225A60019B00229A60019B0022DA6079
:101BE000019A4FF000034FF00004C2E9043403B03F
:101BF00010BC704700000000000000000000000062
:101C000000B583B00190FFF773FF0246019B9A6015
:101C100003B05DF804FB00BF0000000000000000FE
:101C200000B583B00190FFF763FF0146044BD3F882
:101C300084381A460198FFF763FF03B05DF804FB90
:101C4000D808002000000000000000000000000094
:101C500082B072B620230193019B83F3118862B690
:101C600002B070470000000000000000000000000B
:101C700082B000230193019B83F3118802B0704767
:101C800008B5FFF7E5FFFEF7FBFD08BD000000000B
:101C900008B5FEF70DFE094B1B68084A93420AD0AF
:101CA000064B9B699A68054B1B689B689A4202D257
:101CB0000348FEF78DFDFFF7DBFF08BDD8080020C5
:101CC000144B0008000000000000000000000000AD
:101CD00082B00190019BDB69184602B0704700BFDB
:101CE00000B583B0FFF7CCFF084B1B690193019B44
:101CF00093F822300133DAB2019B83F82220FFF7F8
:101D0000C7FF019B184603B05DF804FBD80800200C
:101D100000B585B00190FFF7B3FF019B1B690393EA
:101D2000039B104A934202D1002303930FE0039BCD
:101D300093F82230FF2B02D10B48FEF749FD039B9D
:101D400093F822300133DAB2039B83F82220FFF7A5
:101D50009FFF0198FFF7E4FD039B184605B05DF86F
:101D600004FB00BFD8080020204B00080000000042
:101D700000B585B00190FFF7B3FF03900398FFF71C
:101D8000A7FF0246019B934201D1039B07E0039802
:101D9000FFF7BEFF0390039B002BEFD100231846F3
:101DA00005B05DF804FB00BF00000000000000006B
:101DB00082B072B620230193019B83F3118862B62F
:101DC00002B07047000000000000000000000000AA
:101DD00082B000230193019B83F3118802B0704706
:101DE00082B00190019B019A1A60019B019A5A608E
:101DF00002B070470000000000000000000000007A
:101E000082B00190019B1B68019A9A4214BF012382
:101E10000023DBB2184602B0704700BF000000008C
:101E200084B001900091009B0393039B1B68039374
:101E3000039A009B9A4205D0039B9A68019B9B687A
:101E40009A42F2D2019B039A1A60039B5A68019B43
:101E50005A60019B5B68019A1A60039B019A5A6061
:101E600004B0704700000000000000000000000007
:101E700084B00190019B1B680393039B1A68019B2C
:101E80001A60019B1B68019A5A60039B184604B0B4
:101E9000704700BF000000000000000000000000CC
:101EA00082B00190019B5B68019A12681A60019BE5
:101EB0001B68019A52685A60019B184602B070472D
:101EC00008B5FFF775FFFEF7DBFC08BD000000005A
:101ED00008B5FEF7EDFC094B1B68084A93420AD08F
:101EE000064B9B699A68054B1B689B689A4202D215
:101EF0000348FEF76DFCFFF76BFF08BDD808002014
:101F0000404B00080000000000000000000000003E
:101F100000B583B00190FEF76BFD019B1846FFF7FB
:101F20006FFF0346184603B05DF804FB0000000095
:101F300000B583B00190019B002B02D10648FEF74B
:101F400047FC019B1846FFF74BFF019B00229A605C
:101F500003B05DF804FB00BF304B00080000000038
:101F600000B583B00190FFF7ABFF019800F008F8CF
:101F7000FFF7AEFF03B05DF804FB00BF00000000F8
:101F800000B585B001903B4B9B690293FEF730FD95
:101F9000019B002B02D13848FEF71AFC019B9B687D
:101FA000002B59D0019B9B68039333E0029B9A68F6
:101FB000039B9A60039B93F82030062B04D0072BD9
:101FC00011D0002B1AD02BE00398FFF769FF0246CF
:101FD000039B5B6A19461046FFF722FF039B5B6A6F
:101FE0009B68039316E00398FFF75AFF0246039B92
:101FF0005B6A19461046FFF713FF11E0039B0122AD
:1020000083F820200398FFF74BFF03461846FFF79D
:102010007FF805E0039B9A68029B9B689A42C5D3B0
:10202000019B19460298FFF7FBFE029B019A5A6238
:102030000620FFF7EDF8019B9B68029A9A4202D0B6
:102040000D48FEF7C5FB029B9B6B019A9A420DD08F
:102050000948FEF7BDFB09E0019B029A9A60029BCA
:102060009A6B019BDA60029B019A9A6305B05DF856
:1020700004FB00BFD80800204C4B00080000000003
:1020800000B587B00190354B9B690393019B002BF2
:1020900002D13348FEF79CFBFFF712FF039B9B6BBB
:1020A000002B02D12E48FEF793FB039B9B6B9B6892
:1020B000039A9A4202D02A48FEF78AFB039B9B6B45
:1020C000019A9A4202D02648FEF782FB019BDA6809
:1020D000039B9A630198FFF71BFF0346002B34D044
:1020E000039BDB6B0493039B9B6B059312E00598AA
:1020F000FFF70EFF0346002B09D0059B1B689B686A
:10210000049A9A4203D2059B1B689B680493059B23
:10211000DB680593059B002BE9D1039B049A9A6029
:10212000019B1846FFF7A4FE0290019B029A9A6059
:10213000029B9A6B019BDA60029B019A9A63029858
:10214000FEF7E6FFFFF76CF902E0019B00229A60C0
:10215000FFF7BEFE07B05DF804FB00BFD808002003
:10216000584B0008000000000000000000000000C4
:1021700000B585B001900091FEF722FC019B002B79
:1021800002D11448FEF724FB019B1B68039319E05E
:10219000039BDA68009B1A43039BDA60009B002BC9
:1021A00005D0039B1A69009B1340002B07D0039BAB
:1021B0005A68039B9B681946104600F011F8039B70
:1021C0001B680393039A019B9A42E1D105B05DF825
:1021D00004FB00BF644B000800000000000000008A
:1021E00000B583B001900091FEF7EAFB019B002B44
:1021F00002D11648FEF7ECFA019B5A6B009B1A437A
:10220000019B5A63019B93F820300A2B06D1019B56
:102210005A6B019B5B6A1340002B0DD1019B93F815
:1022200020300B2B0ED1019B5A6B019B5B6A1A402D
:10223000019B5B6A9A4205D1019B00225A62019878
:10224000FEF766FF03B05DF804FB00BF7C4B00089F
:1022500082B072B620230193019B83F3118862B68A
:1022600002B0704700000000000000000000000005
:1022700082B000230193019B83F3118802B0704761
:1022800008B5FFF7E5FFFEF7FBFA08BD0000000008
:1022900008B5FEF70DFB094B1B68084A93420AD0AC
:1022A000064B9B699A68054B1B689B689A4202D251
:1022B0000348FEF78DFAFFF7DBFF08BDD8080020C2
:1022C000AC4B00080000000000000000000000000F
:1022D000034B044A1A60024B034A5A60704700BF1E
:1022E00060110020600001200000052000000000B7
:1022F00000B587B0039002910192FEF761FB029B4B
:10230000002B05D0029B5A1E029B1340002B02D0CB
:102310001748FEF75DFA029A039B13445A1E029B6C
:102320005B4213400393134B1A68019B13441A46F4
:10233000029B13445A1E029B5B4213400593059A6D
:10234000039B134404930B4B5B68049A9A4204D892
:10235000084B1B68049A9A4201D2002303E0054A05
:10236000049B1360059B184607B05DF804FB00BF93
:102370008C4B0008601100200000000000000000ED
:1023800000B587B0039002910192FFF779FF019A9F
:1023900002990398FFF7ACFF0590FFF779FF059BC3
:1023A000184607B05DF804FB0000000000000000C4
:1023B00008B5064B064A1A60044B00225A60034BCC
:1023C00000229A600348FFF7B3FD08BD68110020A2
:1023D0008123200074110020000000000000000094
:1023E00000B587B00190019B002B04D0019B03F046
:1023F0000703002B02D03D48FEF7EAF9019B083B9A
:102400000493049B1B680393039B04330593049B71
:102410005B680733DA08049B5A60039B0C33184649
:10242000FFF79EFD049A059B9A420BD3059B5B68C0
:102430000133DB00059A1344049A9A4202D22B48D6
:10244000FEF7C6F9039B0433059A9A4203D0049A17
:10245000059B9A4242D9059B1B68002B04D0059B23
:102460001B68049A9A4239D2059B1A68049B1A6029
:10247000059B049A1A60049B5B680133DB00049A95
:102480001A44049B1B689A420DD1049B5A68049B12
:102490001B685B6813445A1C049B5A60049B1B68AE
:1024A0001A68049B1A60059B5B680133DB00059A80
:1024B0001344049A9A420BD1059B5A68049B5B68AB
:1024C00013445A1C059B5A60049B1A68059B1A60AA
:1024D000039B0C331846FFF7D3FD03E0059B1B68F5
:1024E00005939FE707B05DF804FB00BFB84B0008F9
:1024F00082B072B620230193019B83F3118862B6E8
:1025000002B0704700000000000000000000000062
:1025100082B000230193019B83F3118802B07047BE
:1025200008B5FFF7E5FFFEF7ABF908BD00000000B6
:1025300008B5FEF7BDF9094B1B68084A93420AD05B
:10254000064B9B699A68054B1B689B689A4202D2AE
:102550000348FEF73DF9FFF7DBFF08BDD808002070
:10256000C44B000800000000000000000000000054
:1025700000B585B001900091009B0393FEF720FA0F
:10258000019B002B02D0009B002B02D10648FEF7D6
:102590001FF9019B1A68039B1A60019B039A1A603A
:1025A00005B05DF804FB00BFD04B00080000000040
:1025B00000B583B001900091FFF7B2FF0099019838
:1025C000FFF7D6FFFFF7B4FF03B05DF804FB00BFD1
:1025D00082B072B620230193019B83F3118862B607
:1025E00002B0704700000000000000000000000082
:1025F00082B000230193019B83F3118802B07047DE
:1026000008B5FFF7E5FF08BD00000000000000006E
:1026100008B5FFF7EDFF08BD000000000000000056
:1026200090B583B000AFEFF309831C4623467B606F
:102630007B6820337B607B683B603B6883F3098861
:10264000FFF7E6FF0C37BD4690BD00BF000000005D
:1026500090B583B000AFFFF7D3FF144B5B6803F472
:102660000063002B1DD0EFF309831C4623467B60DB
:102670007B68203B7B607B684FF08072DA617B680F
:102680003B603B6883F30988FEF7DAFE0346002BC4
:1026900003D07B68064A9A6105E07B68054A9A6127
:1026A00001E0FFF7B5FF0C37BD4690BD00ED00E03F
:1026B000FD022000080320000000000000000000D0
:1026C000704700BF00000000000000000000000094
:1026D00008B5FFF7F5FF00F0ABFF074801F0A0F8E1
:1026E00000F0EEFB00F0C4FC00F0F2FE02F050F847
:1026F00000F03EF808BD00BFB04D0008000000002B
:1027000082B00190054A019B5363044B00221A6179
:10271000024B0222DA6002B0704700BF000C00409A
:10272000014B0022DA607047000C004000000000FE
:1027300082B00190024A019B536302B0704700BF10
:10274000000C00400000000000000000000000003D
:10275000054BDB6803F00203002B14BF01230023A9
:10276000DBB21846704700BF000C004000000000BC
:1027700008B501F0F5F908BD0000000000000000F8
:1027800000B583B00190FFF7E3FF0346002B02D0B2
:102790000448FEF71DF80198FFF7B2FF03B05DF89B
:1027A00004FB00BFDC4B000800000000000000003C
:1027B00008B5FFF7B5FF08BD0000000000000000ED
:1027C00000B583B00190FFF7C3FF034683F0010318
:1027D000DBB2002B02D00448FDF7FAFF0198FFF7A7
:1027E000A7FF03B05DF804FBEC4B000800000000FD
:1027F00082B072B620230193019B83F3118862B6E5
:1028000002B070470000000000000000000000005F
:1028100082B000230193019B83F3118802B07047BB
:10282000014B5B6A18467047000C00400000000036
:1028300008B5FFF7F5FF0346184608BD0000000085
:1028400082B00190019B019A1A60019B019A5A6023
:1028500002B070470000000000000000000000000F
:1028600008B5FFF7C5FFFEF70BF808BD0000000034
:1028700008B5FEF71DF8094B1B68084A93420AD0B9
:10288000064B9B699A68054B1B689B689A4202D26B
:102890000348FDF79DFFFFF7BBFF08BDD8080020E8
:1028A000F84B0008000000000000000000000000DD
:1028B00008B5FFF7BDFF0346184608BD000000003D
:1028C00000B583B001900198FFF7BAFF03B05DF83F
:1028D00004FB00BF0000000000000000000000003A
:1028E00008B5FFF7BDFF08BD0000000000000000B4
:1028F00008B5FFF7BDFF08BD0000000000000000A4
:1029000008B5FFF7D5FF0346184608BD00000000D4
:1029100000B583B001900198FFF7D2FF03B05DF8D6
:1029200004FB00BF000000000000000000000000E9
:1029300000B583B00190009100990198FFF7A0F8CD
:102940000346184603B05DF804FB00BF000000001A
:1029500000B583B00190009100990198FFF7B0F89D
:1029600003B05DF804FB00BF0000000000000000A1
:1029700000B585B00390029101920093039B184625
:10298000FFF7C6FF039B00229A60039B029ADA605E
:10299000039B029A9A61039B029A5A61029A019BD5
:1029A0001A44039B1A61039B009ADA61039B069AFF
:1029B0001A6205B05DF804FB000000000000000092
:1029C00000B583B001900B468DF80330FDF7F8FF9A
:1029D000019B5A69019B9B699A4205D1019B9B68A7
:1029E000002B01D0012300E0002303F00103DBB240
:1029F000002B02D04FF0FF331CE0019B9B685A1C58
:102A0000019B9A60019B5B69591C019A51619DF879
:102A100003201A70019B5A69019B1B699A4203D3D8
:102A2000019BDA68019B5A61019B00211846FFF760
:102A30008FFF0023184603B05DF804FB0000000080
:102A400000B585B001900091FFF74AFF0CE0019BB3
:102A500000991846FFF76CFF0290029B002B03DAE7
:102A6000FFF746FF029B26E0019B9B68002BEED000
:102A7000019B9B685A1E019B9A60019B9B69591C94
:102A8000019A91611B788DF80F30019B9A69019B27
:102A90001B699A4203D3019BDA68019B9A61019BEF
:102AA000DB69002B03D0019BDB6901989847FFF796
:102AB0001FFF9DF80F30184605B05DF804FB00BFFE
:102AC00000B58BB00390029101920093039BDB69E8
:102AD000079300230993019B002B02D13548FDF792
:102AE00077FEFFF7FDFEFFF70BFF0246009B134446
:102AF000069328E0009BB3F1FF3F02D0009B002B20
:102B000006D1039B00991846FFF712FF089013E0C7
:102B1000FFF7F6FE0246069B9B1A0593059A009B5B
:102B20009A4203D9FFF7E4FE099B3FE0039B059916
:102B30001846FFF7FDFE0890089B002B03D0FFF717
:102B4000D7FE099B32E0039B9B68002BD2D0039BEE
:102B50009B685A1E039B9A60039B9A69511C039BB6
:102B60009961029B591C029112781A70039B9A6911
:102B7000039B1B699A4203D3039BDA68039B9A6108
:102B8000079B002B02D0079B03989847FFF7B0FEE6
:102B9000099B01330993019B013B0193019B002B8E
:102BA00001D1099B02E0FFF79BFECCE718460BB072
:102BB0005DF804FB044C0008000000000000000069
:102BC00000B585B00390029101920093039B1846D3
:102BD000FFF79EFE039B019A9A60039B029ADA60BC
:102BE000039B029A9A61039B029A5A61029A019B83
:102BF0001A44039B1A61039B009ADA61039B069AAD
:102C00001A6205B05DF804FB00000000000000003F
:102C100000B587B003900B4601928DF80B30FFF79B
:102C20005FFE0CE0039B01991846FFF781FE0590BB
:102C3000059B002B03DAFFF75BFE059B25E0039B5A
:102C40009B68002BEED0039B9B685A1E039B9A60E7
:102C5000039B5B69591C039A51619DF80B201A7004
:102C6000039B5A69039B1B699A4203D3039BDA684F
:102C7000039B5A61039BDB69002B03D0039BDB6939
:102C800003989847FFF734FE0023184607B05DF815
:102C900004FB00BF00000000000000000000000076
:102CA00000B585B00190FDF78BFE019B5A69019B31
:102CB0009B699A4205D1019B9B68002B01D001239F
:102CC00000E0002303F00103DBB2002B02D04FF041
:102CD000FF331DE0019B9B685A1C019B9A60019B7E
:102CE0009B69591C019A91611B788DF80F30019BEB
:102CF0009A69019B1B699A4203D3019BDA68019B85
:102D00009A61019B00211846FFF722FE9DF80F30C3
:102D1000184605B05DF804FB00000000000000004C
:102D200000B58BB00390029101920093039BDB6985
:102D3000079300230993019B002B02D13548FDF72F
:102D400047FDFFF7CDFDFFF7DBFD0246009B134477
:102D5000069328E0009BB3F1FF3F02D0009B002BBD
:102D600006D1039B00991846FFF7E2FD089013E097
:102D7000FFF7C6FD0246069B9B1A0593059A009B2A
:102D80009A4203D9FFF7B4FD099B3FE0039B0599E5
:102D90001846FFF7CDFD0890089B002B03D0FFF7E6
:102DA000A7FD099B32E0039B9B68002BD2D0039BBD
:102DB0009B685A1E039B9A60029A531C0293039BC2
:102DC0005B69581C0399486112781A70039B5A6911
:102DD000039B1B699A4203D3039BDA68039B5A61E6
:102DE000079B002B02D0079B03989847FFF780FDB5
:102DF000099B01330993019B013B0193019B002B2C
:102E000001D1099B02E0FFF76BFDCCE718460BB040
:102E10005DF804FB144C00080000000000000000F6
:102E200082B072B620230193019B83F3118862B6AE
:102E300002B0704700000000000000000000000029
:102E400082B000230193019B83F3118802B0704785
:102E500008B5FFF7E5FFFDF713FD08BD0000000012
:102E600008B5FDF725FD094B1B68084A93420AD0B7
:102E7000064B9B699A68054B1B689B689A4202D275
:102E80000348FDF7A5FCFFF7DBFF08BDD8080020CD
:102E9000304C0008000000000000000000000000AE
:102EA00008B5FFF7D5FF08BD0000000000000000D6
:102EB00008B5FFF7D5FF08BD0000000000000000C6
:102EC00008B500F09DFE08BD0000000000000000F5
:102ED00082B00190019B01221A70019B00225A606E
:102EE00002B0704700000000000000000000000079
:102EF00000B583B001900091019B002B02D0009B94
:102F0000002B02D10E48FDF763FCFFF7C9FF019BC0
:102F10001B78012B06D0019B1B78022B02D008489E
:102F2000FDF756FC019B009A5A60019800F078FE6C
:102F3000019B02221A70FFF7BBFF03B05DF804FB90
:102F4000244C000800000000000000000000000009
:102F500000B583B00190019B002B02D10B48FDF717
:102F600037FCFFF79DFF019B1B78022B02D007481F
:102F7000FDF72EFC019800F01BFF019B03221A7045
:102F8000FFF796FF03B05DF804FB00BF3C4C000860
:102F900000B583B00190019B002B02D10B48FDF7D7
:102FA00017FCFFF77DFF019B1B78032B06D0019BCD
:102FB0001B78042B02D00548FDF70AFC019800F0AD
:102FC0000FFFFFF775FF03B05DF804FB4C4C0008E2
:102FD00082B072B620230193019B83F3118862B6FD
:102FE00002B0704700000000000000000000000078
:102FF00082B000230193019B83F3118802B07047D4
:1030000008B5FFF7E5FFFDF73BFC08BD0000000039
:1030100008B5FDF74DFC094B1B68084A93420AD0DE
:10302000064B9B699A68054B1B689B689A4202D2C3
:103030000348FDF7CDFBFFF7DBFF08BDD8080020F4
:10304000704C0008000000000000000000000000BC
:1030500008B5FFF7D5FF08BD000000000000000024
:1030600008B5FFF7D5FF08BD000000000000000014
:1030700008B500F0BDFF08BD000000000000000022
:1030800082B00190019B01221A70019B00225A60BC
:10309000019B0022DA60019B00221A7402B0704783
:1030A00000B583B001900091019B002B02D0009BE2
:1030B000002B02D11248FDF78BFBFFF7C9FF019BE4
:1030C0001B78012B06D0019B1B78022B02D00C48E9
:1030D000FDF77EFB019B009A5A60009B5A68019B9A
:1030E0009A60019800F0A4FF019B0022DA60019B26
:1030F00002221A70FFF7B4FF03B05DF804FB00BFB3
:10310000644C000800000000000000000000000007
:1031100000B583B001900091019B002B02D10C48B7
:10312000FDF756FBFFF794FF019B1B78022B02D0A3
:103130000748FDF74DFB019B009A9A60019B9B6934
:10314000009A013ADA62FFF78BFF03B05DF804FBE7
:103150007C4C00080000000000000000000000009F
:1031600000B585B003900B4601928DF80B30039BA0
:10317000002B05D0039B1B7C9DF80B209A4202D3A9
:103180001048FDF725FBFFF763FF039B1B78022B1D
:1031900002D00C48FDF71CFB039BDA689DF80B304E
:1031A000012101FA03F31A43039BDA609DF80B3007
:1031B000019A1946039801F053F8FFF751FF05B043
:1031C0005DF804FB8C4C00080000000000000000CB
:1031D00000B583B001900B468DF80330019B002BA6
:1031E00005D0019B1B7C9DF803209A4202D3114815
:1031F000FDF7EEFAFFF72CFF019B1B78022B02D0A4
:103200000C48FDF7E5FA019BDA689DF803300121CF
:1032100001FA03F3DB431A40019BDA609DF80330A7
:103220001946019801F03CF8FFF71AFF03B05DF86A
:1032300004FB00BFA04C00080000000000000000DC
:1032400000B583B00190019B002B02D10D48FDF722
:10325000BFFAFFF7FDFE019B1B78022B02D0094845
:10326000FDF7B6FA019B5B689B68002B02D105480D
:10327000FDF7AEFA019801F043F8FFF7F1FE03B055
:103280005DF804FBB44C00080000000000000000E2
:1032900000B583B001900B468DF80330019B002BE5
:1032A00005D0019B1B7C9DF803209A4202D318484D
:1032B000FDF78EFAFFF7CCFE019B1B78022B02D0A4
:1032C0001348FDF785FA019BDA689DF8033022FA6E
:1032D00003F303F00103002B02D10D48FDF778FA48
:1032E000019B5A689DF803300133DB0013449B684F
:1032F000002B02D10648FDF76BFA9DF80330194602
:10330000019801F015F8FFF7ABFE03B05DF804FB80
:10331000D44C000800000000000000000000000085
:1033200082B00190019B019A1A6002B0704700BF01
:1033300000B583B001900198FFF7F2FF03B05DF88C
:1033400004FB00BF000000000000000000000000BF
:1033500000B583B00190009100990198FEF708FF35
:1033600003B05DF804FB00BF000000000000000097
:1033700000B585B0039002910192039B03F13000E8
:103380004FF0FF33019A0299FFF7CAFC0346184633
:1033900005B05DF804FB00BF000000000000000065
:1033A00000B585B0039002910192039B03F10C00DC
:1033B0004FF0FF33019A0299FFF782FB034618464C
:1033C00005B05DF804FB00BF000000000000000035
:1033D00000B583B001900B468DF80330019B30336C
:1033E0009DF803104FF0FF321846FFF711FC03461B
:1033F000184603B05DF804FB000000000000000068
:1034000000B583B00190019B0C334FF0FF3118469B
:10341000FFF716FB0346184603B05DF804FB00BF38
:1034200000B585B003900B4601928DF80B30039BDD
:1034300030339DF80B10019A1846FFF7E9FB03465D
:10344000184605B05DF804FB000000000000000015
:1034500000B583B001900091019B0C330099184690
:10346000FFF7EEFA0346184603B05DF804FB00BF11
:1034700000B585B00390029101920093039B03F184
:103480003000009B019A0299FFF74AFC0346184658
:1034900005B05DF804FB00BF000000000000000064
:1034A00000B585B00390029101920093039B03F154
:1034B0000C00009B019A0299FFF702FB0346184695
:1034C00005B05DF804FB00BF000000000000000034
:1034D00008B501F01DF908BD000000000000000063
:1034E00000B583B00190019B064A1A60019B04332A
:1034F0001846FFF71DFF019B01221A7203B05DF809
:1035000004FB00BFF44C00080000000000000000B5
:1035100000B583B001900B468DF80330FDF750FAEB
:10352000019B002B02D11148FDF752F9019B5B6909
:10353000002B05D1019B043304211846FFF708FF37
:10354000019B0C339DF8032011461846FFF738FA0B
:103550000346002B06DA019B04334FF480611846C2
:10356000FFF7F6FE03B05DF804FB00BF144D000842
:1035700082B001900091009BDBB2114A1B01D9B2CD
:10358000019B134403F540730A461A70019B03F034
:103590001F020B49019B5B09012000FA02F2603314
:1035A00041F82320019B03F01F020549019B5B09A1
:1035B000012000FA02F241F8232002B0704700BF58
:1035C00000E100E00000000000000000000000003A
:1035D000134B1B68124A43F480731360114B1B6F2B
:1035E00003F44073B3F5807F06D00E4B4FF4803266
:1035F0001A670C4B00221A670A4B1B6F094A43F0EB
:1036000019031367074B1B6F03F00203002BF9D05C
:10361000034B5B68024A23F400735360704700BF9A
:103620000070004000380240000000000000000070
:1036300008B5134B1B69124B4FF0FF321A61104B48
:1036400000221A610E4B5B690D4B4FF0FF325A613D
:103650000B4B00225A610A4B1B6A094A63F08053E4
:103660001362074B00221A62054B5B6A044B4FF052
:10367000FF325A62024B00225A62FFF7A9FF08BDCF
:1036800000380240000000000000000000000000C0
:1036900082B0474B4FF080521A64464B4FF4404281
:1036A0001A60434B1B68424A43F001031360404BCE
:1036B0001B6803F00203002BF9D03D4B9B683C4A8A
:1036C00023F0030393603A4B9B6803F00C03002B39
:1036D000F9D1374B1B68364A03F0F9031360344BBA
:1036E00000229A60324B1B68314A43F4A0231360D6
:1036F0002F4B1B6803F40033002BF9D02C4B2E4AC0
:103700005A602B4B1B682A4A43F080731360294B85
:103710005B6803F48043002BF9D0264B1B68254AD5
:1037200043F480331360234B5B6803F48033002B36
:10373000F9D0204B1B681F4A43F4003313601D4B24
:103740005B6803F40033002BF9D0194B1B6803F0BE
:103750000073002BF9D0164B184A9A6040F20113FF
:103760000193134A019BC2F88C30114B0022C3F81D
:103770009020134B40F207321A600D4B9B680C4AA5
:1037800043F0020393600A4B9B6803F00C03082B81
:10379000F9D1074B5B6C064A43F480435364044BF6
:1037A0005B6E034A43F48043536602B0704700BF28
:1037B0000038024000700040196C400900949930B4
:1037C000003C02400000000000000000000000007B
:1037D00082B001900091009B5A68019B5A60009B47
:1037E0009A68019B9A60009BDA68019BDA60009BF3
:1037F0001A69019B5A61009B5A69019B1A62009BDE
:103800009A69019B5A62009B1A68019B1A6002B078
:10381000704700BF00000000000000000000000032
:1038200000B583B00190294B1A6B284940F2FF7311
:1038300013430B63254B1A6D244940F2FF73134366
:103840000B65019B19462248FFF7C2FF019B1C3301
:1038500019462048FFF7BCFF019B383319461E4824
:10386000FFF7B6FF019B543319461C48FFF7B0FF22
:10387000019B703319461A48FFF7AAFF019B8C334E
:1038800019461848FFF7A4FF019BA83319461648AC
:10389000FFF79EFF019BC43319461448FFF798FFBA
:1038A000019BE03319461248FFF792FF019BFC335E
:1038B00019461048FFF78CFF019B03F58C731946DE
:1038C0000D48FFF785FF03B05DF804FB00380240A8
:1038D000000002400004024000080240000C0240C8
:1038E000001002400014024000180240001C024078
:1038F0000020024000240240002802400000000096
:103900008EB0039002910192019B03F003030D938B
:10391000019B9B0803F001030C93019BDB0803F060
:1039200003030B93019B5B0903F003030A93019BC1
:10393000DB0903F00F03089300230993029B03F0B4
:103940000103002B79D0099B03F007039B00089A21
:1039500002FA03F307930122099B02FA03F3069389
:10396000099B5B00032202FA03F30593099B03F012
:1039700007039B000F2202FA03F30493039B5A6888
:10398000069BDB431A400C9B1A43039B5A60039B24
:103990009A68059BDB431A400B9B1A43039B9A6072
:1039A000039BDA68059BDB431A400A9B1A43039B7F
:1039B000DA60019B03F00303022B1FD1099B072B45
:1039C00009D8039B1A6A049BDB431A40079B1A43DE
:1039D000039B1A6208E0039B5A6A049BDB431A406C
:1039E000079B1A43039B5A62039B1A68059BDB43A0
:1039F0001A400D9B1A43039B1A601EE0039B1A6832
:103A0000059BDB431A400D9B1A43039B1A60099BDD
:103A1000072B09D8039B1A6A049BDB431A40079BB8
:103A20001A43039B1A6208E0039B5A6A049BDB4318
:103A30001A40079B1A43039B5A62029B5B0802933E
:103A4000029B002B0FD00C9B5B000C930B9B9B00ED
:103A50000B930A9B9B000A930D9B9B000D93099B64
:103A6000013309936AE70EB0704700BF0000000001
:103A700082B072B620230193019B83F3118862B652
:103A800002B07047000000000000000000000000CD
:103A900082B000230193019B83F3118802B0704729
:103AA00008B5FFF7E5FF08BD0000000000000000BA
:103AB00008B5FFF7EDFF08BD0000000000000000A2
:103AC00008B5FFF7EDFFFCF70BFF08BD0000000095
:103AD00008B5FCF71DFFFFF7EBFF08BD0000000075
:103AE00008B5FFF7EDFF08BD000000000000000072
:103AF00008B5FFF7EDFF08BD000000000000000062
:103B000008B5FCF775FE08BD0000000000000000CD
:103B100008B50E48FDF74CF8FCF712FF0C4B1B697B
:103B200003F00203002B08D0094B00221A61FFF7B3
:103B3000D7FFFFF7E5FFFFF7DBFFFCF721FF0348A7
:103B4000FDF75EF8FEF784FD08BD00BF244D0008B8
:103B5000000C004000000000000000000000000019
:103B600008B5154B1B6C144A43F008031364134B40
:103B70009B68124A43F008039360114B42F62F22D0
:103B80009A620F4B4FF0FF32DA620D4B00229A61BE
:103B90000B4B00225A630A4B0022DA60084B0022CA
:103BA0005A60074B01225A61054B01221A60082115
:103BB0003220FFF7DDFC08BD00380240002004E0A1
:103BC000000C0040000000000000000000000000A9
:103BD00008B50848FCF7ECFFFCF7B2FE064800F019
:103BE0003FF9FCF7CDFE0348FDF70AF8FEF730FD7C
:103BF00008BD00BF304D0008841100200000000007
:103C000008B50448FFF764F9024B4FF08042DA60D0
:103C100008BD00BF8411002000000000000000006B
:103C200000B585B00190019B5B681B7D002B07D020
:103C3000019B5B681B7D012B02D05948FCF7C8FD36
:103C4000019B1B78012B1AD1019B564A934227D125
:103C5000554B1B6C544A43F001031364524B1B6ACF
:103C6000514A43F0010313624F4B00221A620721AD
:103C70001C20FFF77DFC019B4C4A9A6011E0019BE0
:103C8000DB6800221A60019BDB6800225A63019BFB
:103C9000DB6800229A63019BDB6800225A6200E025
:103CA00000BF019BDB6800221A61019B5B689A6977
:103CB000019BDB6822F0FF02DA60019B9A68019B9E
:103CC0005B685B68B2FBF3F3013B0393039BB3F5C3
:103CD000803F0AD2039B0133019A5268526802FB6B
:103CE00003F2019B9B689A4202D02D48FCF770FDBD
:103CF000019BDB68039A9A62019BDB684FF6FF72B7
:103D0000DA62019B5B681B7D002B23D1019BDB6882
:103D100040F201229A61019BDB6854229A60019B68
:103D20005B681B78002B04D1019BDB6831221A628F
:103D300003E0019BDB6813221A62019BDB6803F13D
:103D40003802019B1A61019BDB6803F13402019B7D
:103D50005A6122E0019BDB684FF481729A61019BFA
:103D6000DB6864229A60019B5B681B78002B04D19E
:103D7000019BDB6813221A6203E0019BDB6831229E
:103D80001A62019BDB6803F13402019B1A61019BFB
:103D9000DB6803F13802019B5A6105B05DF804FB52
:103DA0003C4D0008841100200038024000F36F06EB
:103DB00082B00190019BDB685A69019BDB6842F08D
:103DC00001025A61019BDB6800221A61019BDB68DA
:103DD00005221A6002B070470000000000000000D9
:103DE00084B00190019BDB68DB680393039BDBB22B
:103DF000002B32D1019BDB6800221A61019B5B68BA
:103E00001B7D002B0DD1039B43F002030393019B09
:103E10005B689B68002B12D0039B43F00403039361
:103E20000EE0039B43F004030393019B5B689B68D4
:103E3000002B05D0039B43F00203039300E000BF77
:103E4000019B5B681B69002B03D0039B43F00103BC
:103E50000393019BDB68039ADA6004B0704700BFEC
:103E600000B585B00190019BDB681B690393019B42
:103E7000DB68DB68DBB2039A13400393019BDB68CA
:103E8000039AD2431A61019B5B681B7D002B29D1E9
:103E9000039B03F00403002B0DD0019B1B78042B24
:103EA00009D1019B5B689B68002B04D0019B5B6878
:103EB0009B6801989847039B03F00203002B3BD0BB
:103EC000019B1B78042B09D1019B5B68DB68002BED
:103ED00004D0019B5B68DB6801989847019B042232
:103EE0001A702AE0039B03F00203002B0DD0019B04
:103EF0001B78042B09D1019B5B689B68002B04D0C5
:103F0000019B5B689B6801989847039B03F004033F
:103F1000002B12D0019B1B78042B09D1019B5B68FD
:103F2000DB68002B04D0019B5B68DB680198984735
:103F3000019B04221A7000E000BF039B03F0010301
:103F4000002B07D0019B5B681B6901989847019B78
:103F500003221A7005B05DF804FB00BF00000000EA
:103F600008B50848FCF724FEFCF7EAFC064800F018
:103F700017FAFCF705FD0348FCF742FEFEF768FB65
:103F800008BD00BF4C4D00089C110020000000003F
:103F900008B50848FCF70CFEFCF7D2FC064800F018
:103FA000FFF9FCF7EDFC0348FCF72AFEFEF750FB97
:103FB00008BD00BF584D00089C1100200000000003
:103FC00008B50848FCF7F4FDFCF7BAFC064800F019
:103FD000E7F9FCF7D5FC0348FCF712FEFEF738FBC7
:103FE00008BD00BF644D0008B811002000000000AB
:103FF00008B50948FFF744F8074B06221A74064B28
:10400000064A9A610648FFF73BF8054B01221A74ED
:10401000034B044A9A6108BD9C1100200000014036
:10402000B811002000200040000000000000000047
:1040300000B585B00190019B1B78012B46D1019BF7
:104040007D4A934219D17D4B5B6C7C4A43F001035E
:1040500053647A4B5B6A794A43F001035362774BAE
:1040600000225A6207211920FFF782FA07211B203C
:10407000FFF77EFA019B724A5A61019B714A934293
:1040800015D16E4B1B6C6D4A43F4807313646B4BFC
:104090001B6A6A4A43F480731362684B00221A62F7
:1040A00007212D20FFF764FA019B674A5A61019BA3
:1040B0009B6946F668029A61019B9B6946F6680215
:1040C000DA61019B9B69614A5A6523E0019B9B6908
:1040D00000221A60019B9B6900225A63019B9B6925
:1040E00000229A63019B9B690022DA63019B9B6912
:1040F00000221A64019B1B7C042B07D9019B9B693E
:1041000000229A65019B9B690022DA65019B9B69ED
:1041100000225A62019B5A69019B5B681B68B2FBD3
:10412000F3F3013B0293029BB3F5803F0AD2029B5B
:104130000133019A5268126802FB03F2019B5B692A
:104140009A4202D04248FCF743FB019B9B69029ACA
:104150009A62019B9A68019B9B69013ADA62019B12
:104160005A68019B9B69D26B5A6000230393019BA1
:104170005B68DB6803F00F03012B05D0022B07D12E
:10418000039B43F002030393039B43F00103039358
:10419000019B5B685B6903F00F03012B05D0022BC9
:1041A00007D1039B43F020030393039B43F01003C9
:1041B0000393019B5B68DB6903F00F03012B05D0C0
:1041C000022B07D1039B43F400730393039B43F437
:1041D00080730393019B5B685B6A03F00F03012B01
:1041E00005D0022B07D1039B43F400530393039B99
:1041F00043F480530393019B9B69039A1A62019BCA
:104200009B6901225A61019B9B6900221A61019BF3
:104210005B681A6C019B9B6922F0FF02DA60019BCC
:104220009B694FF400425A64019B9B6985221A6086
:1042300005B05DF804FB00BF9C110020003802406F
:1042400000E6DF0CB811002000F36F06686801017A
:10425000704D000800000000000000000000000099
:1042600084B003900B4601928DF80B309DF80B3013
:10427000032B09D8039B9A699DF80B300C339B00E4
:104280001344019A5A6008E0039B9B699DF80B2038
:10429000043A1632019943F8221004B0704700BF67
:1042A00082B001900B468DF803309DF80330032B4C
:1042B00017D8019B9A699DF803300C339B00134477
:1042C00000225A60019B9B69DA689DF80330022145
:1042D00001FA03F3DB431946019B9B690A40DA604C
:1042E00008E0019B9B699DF80320043A16320021E7
:1042F00043F8221002B070470000000000000000E8
:1043000084B00190019B9B69DB680393039B03F0DE
:104310000103002B0AD1019B9B696FF001021A6116
:10432000019B9B69039A42F00102DA6004B0704776
:1043300000B585B001900B468DF80330019B9B6959
:10434000DB6803939DF80330032B02D91148FCF777
:104350003FFA9DF80330022202FA03F31A46039B48
:104360001340002B13D19DF80330022202FA03F30D
:10437000DA43019B9B691A619DF80330022202FA1D
:1043800003F31946019B9B69039A0A43DA6005B05F
:104390005DF804FB804D00080000000000000000F4
:1043A00000B585B00190019B9B691B690393019B3C
:1043B0009B69DB68DBB2039A13400393019B9B6903
:1043C000039AD2431A61039B03F00203002B09D026
:1043D000019B5B681B69002B04D0019B5B681B6918
:1043E00001989847039B03F00403002B09D0019B1D
:1043F0005B689B69002B04D0019B5B689B690198FB
:104400009847039B03F00803002B09D0019B5B68CE
:104410001B6A002B04D0019B5B681B6A01989847BC
:10442000039B03F01003002B09D0019B5B689B6A80
:10443000002B04D0019B5B689B6A01989847039B03
:1044400003F00103002B09D0019B5B689B68002BE4
:1044500004D0019B5B689B680198984705B05DF8A4
:1044600004FB00BF0000000000000000000000008E
:1044700082B072B620230193019B83F3118862B648
:1044800002B07047000000000000000000000000C3
:1044900082B000230193019B83F3118802B070471F
:1044A00008B5FFF7E5FF08BD0000000000000000B0
:1044B00008B5FFF7EDFF08BD000000000000000098
:1044C00008B5FFF7EDFFFCF70BFA08BD0000000090
:1044D00008B5FCF71DFAFFF7EBFF08BD0000000070
:1044E00008B5FFF7EDFF08BD000000000000000068
:1044F00008B5FFF7EDFF08BD000000000000000058
:1045000000B583B00190009100990198FDF730FE4D
:1045100003B05DF804FB00BF0000000000000000D5
:1045200000B585B00190009100230393009B03F038
:104530000803002B03D0039B43F080030393009BED
:1045400003F00103002B03D0039B43F020030393EC
:10455000009B03F00203002B03D0039B43F04003B6
:104560000393009B03F00403002B03D0039B43F44D
:1045700080730393FFF7B4FF019B0433039918463C
:10458000FFF7BEFFFFF7B4FF05B05DF804FB00BF07
:1045900000B587B00190019B5B6D0593059B1B687F
:1045A0000493059BDB690393059B039A1A62039BA3
:1045B00003F00F03002B03D003990198FFF7B0FF1E
:1045C000039B03F48073002B0AD0FFF789FF019B44
:1045D00004334FF400711846FFF792FFFFF788FF8E
:1045E000039B03F02003002B0FD0FFF779FF059BFF
:1045F0005B6ADAB2019B93F85C301340DBB2194678
:104600000198FEF785FFFFF773FF049B03F080031B
:10461000002B20D0039B03F08003002B1BD0FFF75F
:104620005FFF019B30331846FEF73AFB0290029B76
:10463000002B0BDA019B043308211846FFF760FFBB
:10464000049B23F08002059B1A6002E0029A059BFE
:104650009A62FFF74DFF049B03F04003002B25D027
:10466000039B03F04003002B20D0FFF739FF019B91
:104670005A6C019B9B6C9A4205D1019B9B6B002B52
:1046800001D0012300E0002303F00103DBB2002B83
:104690000AD0019B043310211846FFF731FF049B19
:1046A00023F04002059B1A60FFF722FF07B05DF878
:1046B00004FB00BF0000000000000000000000003C
:1046C00082B00190034B1B68024A43F0C0031360A1
:1046D00002B0704700100140000000000000000020
:1046E00008B50848FCF764FAFCF72AF90648FFF712
:1046F0004FFFFCF745F90348FCF782FAFDF7A8FFE6
:1047000008BD00BFA44D0008D41100200000000027
:1047100000B583B00F48FEF7E3FE0E4B0093002375
:1047200010220D490D48FEF723F90A4B00930C4B5C
:1047300010220C490C48FEF743FA064B0B4A5A6507
:10474000044B0B4A9A650C212520FEF711FF03B09C
:104750005DF804FBD411002034120020E011002089
:10476000C146200044120020041200200010014025
:1047700000F36F06000000000000000000000000D1
:1047800008B5FEF785FF08BD00000000000000002E
:10479000704700BF000000000000000000000000A3
:1047A00082B0019002B070470000000000000000DD
:1047B00082B0019002B070470000000000000000CD
:1047C00082B00190054B02221A83019B1B691B6872
:1047D0000133034A136002B0704700BF002002405B
:1047E0005412002000000000000000000000000043
:1047F00082B00190054B02225A83019B5B691B68C2
:104800000133034A136002B0704700BF002002402A
:10481000581200200000000000000000000000000E
:1048200082B0019002B0704700000000000000005C
:1048300008B5FDF74DFFFBF793FF3A493A48FEF7FD
:104840002FFC3948FEF7FCFC82224FF48071374878
:10485000FFF756F836493748FEF74AFB82224FF4F5
:1048600000413248FFF74CF8334B02225A830122B1
:1048700002213148FFF744F842F21070FDF7F0F8DA
:104880002C48FEF765FB2B48FEF782FB264B9B6806
:1048900041F64C5202FB03F3284AA2FB03235B0BB5
:1048A0001A4600212048FEF75BFC00211E48FEF757
:1048B000EFFC4CF25030FDF7D3F81B4B9B6841F2F4
:1048C000883202FB03F31D4AA2FB03235B0B1A464B
:1048D00000211548FEF744FC4CF25030FDF7C0F8BB
:1048E000114B9B6840F6C41202FB03F3134AA2FB70
:1048F00003235B0B1A4600210B48FEF731FC4CF2F8
:104900005030FDF7ADF841F288310748FEF700FC62
:104910004CF25030FDF7A4F800210348FEF758FC94
:10492000B4E700BF000001209C11002000000240FD
:104930004400012084110020002002405917B7D103
:10494000444F000860000120600001206000012049
:10495000444F000800000120000001200000012059
:10496000444F000800C0042000C0042000C0042000
:10497000444F00085C1200205C1200205C120020F2
:10498000444F00080000000000000000000000008C
:10499000444F0008004002400040024000400240F6
:1049A000444F00080000000000000000000000006C
:1049B000444F00080000000000000000000000005C
:1049C00069646C6500000000C04900080008002010
:1049D000D80800200100000051072000000000005E
:1049E00063685654446F5469636B490053562333CC
:1049F00000000000535623340000000053562335B6
:104A000000000000535623360000000053562337A1
:104A1000000000005356233800000000535623398D
:104A2000000000005356233130000000535623315C
:104A30003100000063685654446F536574490000A8
:104A400063685654446F52657365744900000000F2
:104A5000737461636B206F766572666C6F770000AC
:104A6000636853636852656164794900636853639E
:104A700068526561647941686561644900000000BD
:104A8000636853636857616B65757053000000007D
:104A900063685468644372656174655375737065C7
:104AA0006E646564490000006368537973556E6CE9
:104AB0006F636B006368546864437265617465007A
:104AC000636854686452656C65617365000000003A
:104AD0006368546864457869745300006368546877
:104AE00064536C65657053006368546864446F4434
:104AF0006571756575654E65787449006D61696E9F
:104B000000160420040444080C1014181C20212250
:104B1000000000006368537973556E6C6F636B001F
:104B200063685265674E65787454687265616400A5
:104B300063684D74784F626A656374496E69740086
:104B40006368537973556E6C6F636B0063684D7463
:104B5000784C6F636B53000063684D7478556E6CCE
:104B60006F636B00636845767442726F6164636162
:104B70007374466C61677349000000006368457692
:104B8000745369676E616C49000000006368436F8D
:104B90007265416C6C6F63416C69676E65645769DF
:104BA00074684F66667365744900000063685379E2
:104BB00073556E6C6F636B00636848656170467215
:104BC000656500006368537973556E6C6F636B00A5
:104BD0006368506F6F6C46726565490073745374F7
:104BE000617274416C61726D0000000073745365F2
:104BF00074416C61726D00006368537973556E6C1B
:104C00006F636B0069715265616454696D656F759E
:104C1000740000006F71577269746554696D656F37
:104C2000757400006963755374617274000000004C
:104C30006368537973556E6C6F636B00696375536A
:104C4000746172744361707475726500696375454F
:104C50006E61626C654E6F74696669636174696FD9
:104C60006E73000070776D53746172740000000001
:104C70006368537973556E6C6F636B0070776D4327
:104C800068616E6765506572696F640070776D4525
:104C90006E61626C654368616E6E656C0000000059
:104CA00070776D44697361626C654368616E6E65AF
:104CB0006C00000070776D456E61626C65506572C6
:104CC000696F6469634E6F74696669636174696F63
:104CD0006E00000070776D456E61626C65436861BF
:104CE0006E6E656C4E6F74696669636174696F6E30
:104CF0000000000071332000A1332000D1332000D8
:104D0000013420002134200051342000713420006F
:104D1000A13420007364496E636F6D696E674461EE
:104D200074614900566563746F7231303800000059
:104D3000566563746F724230000000006963755FEE
:104D40006C6C645F73746172740000005665637408
:104D50006F72413400000000566563746F72414306
:104D600000000000566563746F7246340000000056
:104D700070776D5F6C6C645F7374617274000000B7
:104D800070776D5F6C6C645F656E61626C655F63AC
:104D900068616E6E656C5F6E6F746966696361747D
:104DA000696F6E00566563746F72443400000000D2
:104DB000A888A82A00000000FF3FFFFF1111014052
:104DC000FFFF0000B0ABA0B070AA0A008A88A00A5A
:104DD00000000000FFFFFFFF11150550FFFF00005E
:104DE000AA00A07000AAAA00AA0AAA020000000055
:104DF000FFFFFF0F00100004FFFF0000BACABB0056
:104E0000CCCC0C002A042AA000000000FFFFFFFF0A
:104E100040504005FF0F0000CC0C0000CC0C00CC33
:104E20000A82AAAA00000000FFFFFFFF1014000082
:104E3000FFFF0000CC000EC0CCCCCCCCAA0A80AACC
:104E400000000000FFFFFFFF00501500FFFF000003
:104E5000CCCCCC0000C0CCCC0A0A82AA0000000056
:104E6000FFFFFFFF50501400FFFF0000CC00CC00FC
:104E70000CB0B9CB808A020080010000FFFFFFFF69
:104E800010105455FFFF000000C0CA40040000008D
:104E9000000028A900000000FFFFFFFF555501009A
:104EA000FFFF000000000000E00EE0EEAAAAAAA8A2
:104EB000000000000000000000000000FFFF0000F4
:104EC000EEEEEEEEEEEEE0EE6AAA0000000000006C
:104ED0000000000000000000F7FF0000EE0EEEEE04
:044EE00000000000CE
:104EE4001027000010270000A14720000100000047
:104EF400B147200000000000000000000000000096
:104F0400000000000000000000000000000000009D
:104F1400000000000000000000000000000000008D
:104F2400000000000000000010270000C14720001E
:104F3400F14720002148200000000000000000008C
:0400000500200201D4
:00000001FF
